:200000000EC028C027C026C025C0BCC323C022C021C020C01FC01EC01DC01CC01BC01124ED
:200020001FBECFE5D2E0DEBFCDBF10E0A0E6B0E0ECE2F0E102C005900D92AC37B107D9F74E
:2000400010E0ACE7B0E001C01D92A439B107E1F770D4EAC7D5CFA0E0B0E0E0E3F0E0B5C7F8
:20006000EC01A880B980CA80DB80A114B104C104D10441F484E2A82E89EDB82E8BE5C82E56
:2000800087E0D82EC601B5012DE133EF41E050E057D727EA31E440E050E012D77B018C015F
:2000A000C601B5012DE133EF41E050E049D7CA01B9012CEE34EF4FEF5FEF02D76E0D7F1DE4
:2000C000801F911F97FF04C06150704080409048688379838A839B839B01AC015F77B90193
:2000E000CA01CDB7DEB7EAE08CC7B5DF089580E690E0B1DF08956093600070936100809301
:20010000620090936300089520E030E0F901E358FF4F408190E0F901EC59FF4FD901A05936
:20012000BF4F05C0808187BB8C9188BB9F5F9417C8F3E42F03C017BA18BAEF5FE436D8F339
:200140002F5F3F4F2D30310509F708950F931F93CF93DF938C01C0E0D0E002C0D5DF219621
:20016000C017D107D8F3DF91CF911F910F91089589E890E060E070E0F2D2843008F081E006
:2001800080937C00089589E890E060E070E0E7D240917C00841729F089E890E060E070E097
:2001A000E5D208952F923F924F925F926F927F928F929F92AF92BF92CF92DF92EF92FF92AD
:2001C0000F931F93DF93CF93CDB7DEB72E970FB6F894DEBF0FBECDBF8D8359016A01EE828D
:2001E000FF820887198780E090E0F4D420E030E040E752E456D47B018C0129D5BAD46A879A
:200200007B878C879D878A858E87682F70E0882777FD8095982FE0D49B01AC01C801B7011D
:20022000D7D37B018C0160E070E080E89FE3A6019501CED39B01AC016E817F818885998550
:20024000D4D53B014C01C601B501A8019701CDD59B01AC0160E070E080E89FE3B9D39B0121
:20026000AC016E817F8188859985BFD51B012C0160E070E080E89FE3A8019701A9D39B0107
:20028000AC01C601B501B1D59B01AC0160E070E080E89FE39DD39B01AC016E817F81888536
:2002A0009985A3D57B018C019E859230B9F1933028F4992361F09130B9F423C0BE85B430AC
:2002C00009F442C0B430B8F1B53071F44EC08E819F81A885B98589839A83AB83BC83C70142
:2002E000D8015C016D0117C080E090E0A0E0B0E089839A83AB83BC835C016D017C018D0137
:2003000046C0C101D20189839A83AB83BC83AE80BF80C884D9849301A40135C0C301D401CF
:2003200089839A83AB83BC83AE80BF80C884D9849701A80128C0C301D40189839A83AB83F8
:20034000BC839101A20108C0C701D80189839A83AB83BC839301A401C901DA015C016D0181
:20036000EE80FF800885198512C08E819F81A885B98589839A83AB83BC83C301D4015C016D
:200380006D019101A201C901DA017C018D0169817A818B819C8120E030E048EC52E425D588
:2003A0003B014C0120E030E040E050E076D3882314F4552410C0C401B30120E030E048EC52
:2003C00052E40FD518161CF494E6592E04C0C401B301D4D3562EC601B50120E030E048EC9B
:2003E00052E403D53B014C0120E030E040E050E054D3882314F4DD2410C0C401B30120E0E2
:2004000030E048EC52E4EDD418161CF484E6D82E04C0C401B301B2D3D62EC801B70120E0AC
:2004200030E048EC52E4E1D47B018C0120E030E040E050E032D3882314F460E00EC0C80195
:20044000B70120E030E048EC52E4CBD4181614F464E603C0C801B70191D39D81E92FF0E09D
:20046000E358FF4F5082D48260872E960FB6F894DEBF0FBECDBFCF91DF911F910F91FF902A
:20048000EF90DF90CF90BF90AF909F908F907F906F905F904F903F902F9008953F924F927A
:2004A0005F926F927F928F929F92AF92BF92CF92DF92EF92FF920F931F93DF93CF93CDB7C5
:2004C000DEB728970FB6F894DEBF0FBECDBFE0917C00F0E0DF01AC59BF4F8C9187BBE05939
:2004E000FF4F808188BB64EF71E080E090E092D117BA18BA6AEF70E080E090E08BD180910A
:200500007C00813019F1813038F0823009F455C0833009F0E1C084C064E070E080E090E012
:2005200013D2162F68E671E080E090E00DD29B01AC01812FB90120E030E040E85FE379019C
:200540008A0130DE88EE93E001DEE6CF60E170E080E090E024E130E040E050E015D2862E24
:2005600026C0C501682D70E0D8D4CB018C0D9D1D68E671E0BED4BC01892D20E030E040E843
:200580005FE379018A010EDE939488E691E0A80EB91E94E0991629F78EE190E0D7DD089423
:2005A000C11CD11CE8E6CE16E1E0DE0610F0CC24DD249924AA24BB24D4CF60E170E080E02B
:2005C00090E024E130E040E050E0DED1862E38E6A32E31E0B32E9924CC24DD24C601682DF8
:2005E00070E09BD4CB018A0D9B1D68E671E081D4BC01892D20E030E040E85FE379018A013B
:20060000D1DD939488E691E0C80ED91E94E0991629F78EE190E09ADD0894A108B108DBCF18
:2006200068E671E080E090E08FD13B0191E0998389E08A8381E18B8389E18C839D839E8382
:200640009F839887AA244E010894811C911C25E0422E512C4C0E5D1E3324339435C0CA2C86
:20066000DD24F401EC0DFD1DB0806B2D70E0882777FD8095982FB0D22AE037ED43E25CE346
:20068000B4D37B018C018A2DB30120E030E040E85FE388DD8B2D8150823630F0F201EC0D33
:2006A000FD1D808183258083F201EC0DFD1D8081882321F0C80CD91CB39403C0C80CD91C15
:2006C000BA94F601B082A394F3E0FA1540F68EE190E03CDDAA24C3CF28960FB6F894DEBF50
:2006E0000FBECDBFCF91DF911F910F91FF90EF90DF90CF90BF90AF909F908F907F906F90BB
:200700005F904F903F9008950F93DF93CF9300D0CDB7DEB780E090E000E20DC09C01220FF3
:20072000331F3A83298381E0EBD081709070E981FA818E2B9F2B015089F743D119DD80919D
:200740007C008F5F80937C00843010F010927C001ADD0F900F90CF91DF910F910895E19912
:20076000FECF7FBB6EBBE09A8DB30895E199FECF1CBA7FBB6EBB4DBB0FB6F894E29AE19A22
:200780000FBE08951F920F920FB60F9211242F933F938F939F93AF93BF9380918E009091C6
:2007A0008F00A0919000B0919100309192000196A11DB11D232F2D5F2D3720F02D57019634
:2007C000A11DB11D2093920080938E0090938F00A0939000B093910080918A0090918B0017
:2007E000A0918C00B0918D000196A11DB11D80938A0090938B00A0938C00B0938D00BF9121
:20080000AF919F918F913F912F910F900FBE0F901F9018959B01AC017FB7F89480918A00AB
:2008200090918B00A0918C00B0918D0062B708B601FE05C06F3F19F00196A11DB11D7FBFCE
:20084000BA2FA92F982F8827860F911DA11DB11D62E0880F991FAA1FBB1F6A95D1F7BC01DA
:200860002EC0FFB7F89480918A0090918B00A0918C00B0918D00E2B708B601FE05C0EF3F2D
:2008800019F00196A11DB11DFFBFBA2FA92F982F88278E0F911DA11DB11DE2E0880F991F4F
:2008A000AA1FBB1FEA95D1F7861B970B885E9340C0F2215030404040504068517C4F2115F5
:2008C00031054105510569F6089578948AB582608ABD8AB581608ABD83B7826083BF83B7D7
:2008E000816083BF89B7826089BF80B7826080BF80B7816080BF329A319A309A379A0895ED
:20090000982F8E3008F09E509770809193008295880F880F807C892B87B9369A3699FECF20
:2009200024B145B1942F80E030E0282B392BC9010895CF93DF93C9DFE7DEC0E0D0E0AEDD7F
:200940002097E9F35DDBFBCFEF92FF920F931F937B018C01611571058105910529F420E06E
:2009600030E040E050E009C0C2DBA8019701E8D2AC01CB01DA019C01AD01B901CA011F91E2
:200980000F91FF90EF900895EF92FF920F931F937B018C0162177307840795075CF4261BF2
:2009A000370B480B590BCA01B901CEDFE60EF71E081F191FB701C8011F910F91FF90EF90C5
:2009C0000895009721F0BC0180E090E094DB08955058BB27AA270ED0B3C1A4D130F0A9D17D
:2009E00020F031F49F3F11F41EF499C10EF4E095E7FB64C1E92FB5D180F3BA176207730730
:200A00008407950718F071F49EF5E4C10EF4E0950B2EBA2FA02D0B01B90190010C01CA0175
:200A2000A0011124FF27591B99F0593F50F4503E68F11A16F040A22F232F342F4427585FF2
:200A4000F3CF469537952795A795F0405395C9F77EF41F16BA0B620B730B840BBAF09150EC
:200A6000A1F0FF0FBB1F661F771F881FC2F70EC0BA0F621F731F841F48F4879577956795D5
:200A8000B795F7959E3F08F0B3CF9395880F08F09927EE0F979587950895ECD008F481E0B5
:200AA00008950CD04DC145D140F03CD130F021F45F3F19F003C151118EC131C152D198F36B
:200AC0009923C9F35523B1F3951B550BBB27AA2762177307840738F09F5F5F4F220F331FEA
:200AE000441FAA1FA9F333D00E2E3AF0E0E830D091505040E695001CCAF729D0FE2F27D017
:200B0000660F771F881FBB1F261737074807AB07B0E809F0BB0B802DBF01FF2793585F4F4A
:200B20002AF09E3F510568F0C9C055C15F3FECF3983EDCF3869577956795B795F7959F5F56
:200B4000C9F7880F911D9695879597F90895E1E0660F771F881FBB1F621773078407BA0790
:200B600020F0621B730B840BBA0BEE1F88F7E095089504D06894B1112EC10895FAD088F018
:200B80009F5790F0B92F9927B751A0F0D1F0660F771F881F991F1AF0BA95C9F712C0B130A8
:200BA00081F018D1B1E0089515C1672F782F8827B85F39F0B93FCCF3869577956795B39589
:200BC000D9F73EF490958095709561957F4F8F4F9F4F0895E89409C097FB3EF49095809564
:200BE000709561957F4F8F4F9F4F9923A9F0F92F96E9BB279395F695879577956795B7955F
:200C0000F111F8CFFAF4BB0F11F460FF1BC06F5F7F4F8F4F9F4F16C0882311F096E911C0DA
:200C2000772321F09EE8872F762F05C0662371F096E8862F70E060E02AF09A95660F771F62
:200C4000881FDAF7880F9695879597F90895ABD080F09F3740F491110EF0BDC060E070E06F
:200C600080E89FEB089526F41B16611D711D811D2BC045C0990F0008550FAA0BE0E8FEEF82
:200C800016161706E807F907C0F012161306E407F50798F0621B730B840B950B39F40A2635
:200CA00061F0232B242B252B21F408950A2609F4A140A6958FEF811D811D089597F99F670E
:200CC00080E870E060E00895882371F4772321F09850872B762F07C0662311F499270DC0A3
:200CE0009051862B70E060E02AF09A95660F771F881FDAF7880F9695879597F908959F3F1D
:200D000049F0915028F4869577956795B7959F5F80389F4F880F9695879597F908959FEFF1
:200D200080EC089500240A941616170618060906089500240A941216130614060506089510
:200D4000092E0394000C11F4882352F0BB0F40F4BF2B11F460FF04C06F5F7F4F8F4F9F4F4F
:200D6000089557FD9058440F551F59F05F3F71F04795880F97FB991F61F09F3F79F087951A
:200D80000895121613061406551FF2CF4695F1DF08C0161617061806991FF1CF8695710543
:200DA000610508940895E5DFA0F0BEE7B91788F4BB279F3860F41616B11D672F782F88275C
:200DC000985FF7CF869577956795B11D93959639C8F30895E894BB2766277727CB0197F931
:200DE000089548DF08F48FEF08950AD0A9CF9ADF28F09FDF18F0952309F060CF90CFEBCFB6
:200E0000B0DFA8F39923D9F35523C9F3950F50E0551FAA27EE27FF27BB27002408946795FA
:200E200020F4E20FF31FB41F0A1E220F331F441FAA1F6695A9F7779530F4F30FB41F0A1E29
:200E4000121E08F46395330F441FAA1F221F769599F7879520F4B40F0A1E121E631F440F04
:200E6000AA1F221F331F8695A9F7862F712D602D11249F5750408AF0E1F088234AF0EE0F93
:200E8000FF1FBB1F661F771F881F91505040A9F79E3F510570F012CF9ECF5F3FECF3983E53
:200EA000DCF3869577956795B795F795E7959F5FC1F7FE2B880F911D9695879597F9089554
:200EC000FF27EE27BB27AA2760FF04C0A20FB31FE41FF51F220F331F441F551F96958795C6
:200EE0007795679589F70097760771F7CF01BD010895AA1BBB1B51E107C0AA1FBB1FA617CF
:200F0000B70710F0A61BB70B881F991F5A95A9F780959095BC01CD01089597FB092E07264A
:200F20000AD077FD04D0E5DF06D000201AF4709561957F4F0895F6F7909581959F4F0895AE
:200F400097FB092E05260ED057FD04D014D00AD0001C38F450954095309521953F4F4F4F30
:200F60005F4F0895F6F790958095709561957F4F8F4F9F4F0895A1E21A2EAA1BBB1BFD0169
:200F80000DC0AA1FBB1FEE1FFF1FA217B307E407F50720F0A21BB30BE40BF50B661F771FC7
:200FA000881F991F1A9469F760957095809590959B01AC01BD01CF0108952F923F924F92A9
:200FC0005F926F927F928F929F92AF92BF92CF92DF92EF92FF920F931F93CF93DF93CDB79A
:200FE000DEB7CA1BDB0B0FB6F894DEBF0FBECDBF09942A88398848885F846E847D848C8484
:201000009B84AA84B984C884DF80EE80FD800C811B81AA81B981CE0FD11D0FB6F894DEBF69
:201020000FBECDBFED010895F894FFCF01000000031218090A110A111218090302100801B4
:08104000021008010210080172
:00000001FF
