:200000000EC028C027C026C025C0A8C323C022C021C020C01FC01EC01DC01CC01BC0112401
:200020001FBECFE5D2E0DEBFCDBF10E0A0E6B0E0E0EAF0E102C005900D92AC37B107D9F752
:2000400010E0ACE7B0E001C01D92A439B107E1F74CD424C8D5CF2F923F924F925F926F929B
:200060007F928F929F92AF92BF92CF92DF92EF92FF920F931F93DF93CF93CDB7DEB72897A7
:200080000FB6F894DEBF0FBECDBF8F8329833A834B835C83470180E090E074D520E030E080
:2000A00040E752E4D6D47B01B82EC92E7F2DA7D538D5D62E70E0882777FD8095982F64D51F
:2000C0009B01AC016E2D7F2D8B2D9C2D59D4C62EB72EF82EE92E60E070E080E89FE32981A8
:2000E0003A814B815C814CD49B01AC01682D792D802F912F50D6762E672E582E492E698143
:200100007A818B819C81F7012C2D3B2D4F2F5E2F42D69B01AC0160E070E080E89FE330D418
:200120009B01AC01682D792D802F912F34D6362E272E8D839E8360E070E080E89FE3F70166
:200140002C2D3B2D4F2F5E2F1BD49B01AC0169817A818B819C811FD69B01AC0160E070E0BF
:2001600080E89FE30DD49B01AC01682D792D802F912F11D62D2D223031F1233030F4DD2098
:2001800009F44BC0213041F414C0AD2DA43091F1A43008F1A530C9F1DD24CC24BB24AA24D3
:2001A000EE24FF24188619828824992400E010E039C063015201740108871983832C922CDB
:2001C0000D811E812FC0D62EC72EB82EA92E7401088719830AC0D82CC92CB02EA12EE32C2E
:2001E000F22CBD81B887EE81E983872C962C052D142D18C0D82CC92CB02EA12EE72CF62CEE
:20020000588649824B018C010DC06101BD80AE80E72CF62C5886498205C0630152017B01EC
:2002200088879983682D792D802F912F20E030E048EC52E4B0D5162F072F982E892EA80149
:200240009401652F742F832F922F20E030E0A901FCD387FD16C0A8019401652F742F832F55
:20026000922F20E030E048EC52E491D518165CF0A8019401652F742F832F922F57D4962E8C
:2002800004C0992402C094E6992E388529816E2D7F2D832F922F20E030E048EC52E47BD5EF
:2002A0007B01182F092F98017F2D832F922F20E030E0A901CAD387FD14C098016E2D7F2DFC
:2002C000832F922F20E030E048EC52E460D5181654F098016E2D7F2D832F922F27D4E62E28
:2002E00004C0EE2402C084E6E82EA6019501652F7C2D832F9A2D20E030E048EC52E44BD559
:20030000F62E072F182FD92E20E030E0A9019DD387FD11C06F2D702F812F9D2D20E030E0F1
:2003200048EC52E434D5181644F06F2D702F812F9D2DFCD303C060E001C064E62F81E22F95
:20034000F0E0E358FF4F9082E482608728960FB6F894DEBF0FBECDBFCF91DF911F910F91C0
:20036000FF90EF90DF90CF90BF90AF909F908F907F906F905F904F903F902F90089590E04E
:20038000FC01EC59FF4F208127BB80599F4FFC01808188BB089517BA18BA0895FF920F9332
:2003A0001F93CF93DF93CDE7D0E010E0F99000E003C0812FE4DF0F5F0F15D8F30F2D02C069
:2003C000EADF0F5F0436E0F31F5F1D3079F7DF91CF911F910F91FF9008950F931F93CF939C
:2003E000DF938C01C0E0D0E002C0D8DF2196C017D107D8F3DF91CF911F910F9108953F9276
:200400004F925F926F927F928F929F92AF92BF92CF92DF92EF92FF920F931F93DF93CF9308
:20042000CDB7DEB728970FB6F894DEBF0FBECDBF80917C00A4DF64EF71E080E090E0FDD14B
:20044000AADF6AEF70E080E090E0F7D180917C00823009F46CC0833030F4882389F08130BE
:2004600009F021C127C0833009F498C0843009F01AC100E0EE24E39411E0DD24D394F5C0B3
:2004800064E070E080E090E042D2E62E68E671E080E090E03CD29B01AC018E2DB90120E095
:2004A00030E040E85FE379018A01D5DD88EE93E094DFE6CF60E170E080E090E024E130E084
:2004C00040E050E040D2CC24DD24462EBB2458E6652E51E0752E27C0C401642D7B2DF3D425
:2004E0006C0D7D1DCB01B301DAD4BC018A2D20E030E040E85FE379018A01ADDD85E090E069
:200500006CDFA39488E691E0880E991E9A2D943019F70894C11CD11C88E6C81681E0D806A1
:2005200010F0CC24DD2488249924AA24D5CF60E170E080E090E024E130E040E050E003D254
:2005400048E6842E41E0942EC62E442438E6632E31E0732EAA24BB24DD24C5016C2D742D6D
:20056000B2D4680D791DCB01B30199D4BC018D2D20E030E040E85FE379018A016CDD85E059
:2005800090E02BDFD39488E691E0A80EB91E9D2D943019F7089481089108DCCF68E671E068
:2005A00080E090E0B4D14B0181E0898399E09A8391E19B8399E19C838D838E838F8388872C
:2005C000DD243E010894611C711C25E0422E512C4C0E5D1E33243394AD2CBB24F301EA0DAD
:2005E000FB1DC0806C2D70E0882777FD8095982FCBD22AE037ED43E25CE3CDD37B018C01E3
:200600008D2DB40120E030E040E85FE324DD85E090E0E3DE9C2D9150923680F0F201EA0D8E
:20062000FB1D8081832580830894811C911C88E6881681E0980610F088249924F201EA0DB2
:20064000FB1D8081882331F0F301EA0DFB1DC394C08204C0F301EA0DFB1D9083D3949D2D0E
:20066000943008F4B9CFDD24B7CF812F8150823608F0ED24EE2011F01F5F01C01150112386
:2006800031F4E02FF0E0E358FF4F10820F5F0C3008F000E0E02FF0E0E358FF4F108385E059
:2006A00090E09BDEE2CF28960FB6F894DEBF0FBECDBFCF91DF911F910F91FF90EF90DF90FE
:2006C000CF90BF90AF909F908F907F906F905F904F903F90089589E890E060E070E037D01F
:2006E000853008F081E080937C00089589E890E060E070E02CD040917C00841729F089E8E1
:2007000090E060E070E026D008951F93CF93DF9310E280E090E009C0EC01CC0FDD1F81E010
:20072000CCD0817090708C2B9D2B1150A9F7E8D0D2DF80917C008F5F80937C00853010F084
:2007400010927C00D3DFDF91CF911F910895CB0158D40895CB01642F5CD408951F920F9299
:200760000FB60F9211242F933F938F939F93AF93BF9380918E0090918F00A0919000B09111
:200780009100309192000196A11DB11D232F2D5F2D3720F02D570196A11DB11D2093920014
:2007A00080938E0090938F00A0939000B093910080918A0090918B00A0918C00B0918D007D
:2007C0000196A11DB11D80938A0090938B00A0938C00B0938D00BF91AF919F918F913F916C
:2007E0002F910F900FBE0F901F9018959FB7F89420918A0030918B0040918C0050918D009E
:2008000082B708B601FE06C08F3F21F02F5F3F4F4F4F5F4F9FBF542F432F322F2227280FA1
:20082000311D411D511D82E0220F331F441F551F8A95D1F7B901CA010895EF92FF920F9325
:200840001F93CF93DF937B018C01D0DFEB010EC0CDDF6C1B7D0B83E0683E780738F0089499
:20086000E108F10801091109C851DC4FE114F1040105110569F7DF91CF911F910F91FF9019
:20088000EF90089578948AB582608ABD8AB581608ABD83B7826083BF83B7816083BF89B766
:2008A000826089BF80B7826080BF80B7816080BF329A319A309A379A08958E3008F08E50FC
:2008C0008770909193009295990F990F907C982B97B9369A3699FECF24B135B1932F80E08E
:2008E00030E0282B392BC9010895CF93DF93CADF0CDFC0E0D0E083DD2097E9F381DBFBCFF9
:20090000009721F0BC0180E090E072D30895EF92FF920F931F937B018C01611571058105DF
:20092000910539F061D3A8019701E0D29B01AC0103C020E030E0A901B901CA011F910F9136
:20094000FF90EF900895EF92FF920F931F937B018C0162177307840795075CF4CA01B9018E
:200960006E197F09800B910BD2DFE60EF71E081F191FB701C8011F910F91FF90EF900895AC
:200980005058BB27AA270ED0B1C1A2D130F0A7D120F031F49F3F11F41EF497C10EF4E095A8
:2009A000E7FB64C1E92FB3D180F3BA17620773078407950718F071F49EF5E2C10EF4E0952C
:2009C0000B2EBA2FA02D0B01B90190010C01CA01A0011124FF27591B99F0593F50F4503E96
:2009E00068F11A16F040A22F232F342F4427585FF3CF469537952795A795F0405395C9F75D
:200A00007EF41F16BA0B620B730B840BBAF09150A1F0FF0FBB1F661F771F881FC2F70EC0A3
:200A2000BA0F621F731F841F48F4879577956795B795F7959E3F08F0B3CF9395880F08F0F1
:200A40009927EE0F979587950895ECD008F481E008950CD04BC143D140F03AD130F021F4D2
:200A60005F3F19F003C151118CC12FC150D198F39923C9F35523B1F3951B550BBB27AA2769
:200A800062177307840738F09F5F5F4F220F331F441FAA1FA9F333D00E2E3AF0E0E830D088
:200AA00091505040E695001CCAF729D0FE2F27D0660F771F881FBB1F261737074807AB0748
:200AC000B0E809F0BB0B802DBF01FF2793585F4F2AF09E3F510568F0C9C053C15F3FECF3D4
:200AE000983EDCF3869577956795B795F7959F5FC9F7880F911D9695879597F90895E1E01E
:200B0000660F771F881FBB1F621773078407BA0720F0621B730B840BBA0BEE1F88F7E095AA
:200B2000089504D06894B1112CC10895F8D088F09F5790F0B92F9927B751A0F0D1F0660FD0
:200B4000771F881F991F1AF0BA95C9F712C0B13081F016D1B1E0089513C1672F782F88278E
:200B6000B85F39F0B93FCCF3869577956795B395D9F73EF490958095709561957F4F8F4F30
:200B80009F4F0895E89409C097FB3EF490958095709561957F4F8F4F9F4F9923A9F0F92F75
:200BA00096E9BB279395F695879577956795B795F111F8CFFAF4BB0F11F460FF1BC06F5F23
:200BC0007F4F8F4F9F4F16C0882311F096E911C0772321F09EE8872F762F05C0662371F06E
:200BE00096E8862F70E060E02AF09A95660F771F881FDAF7880F9695879597F90895A9D0E2
:200C000080F09F3740F491110EF0BBC060E070E080E89FEB089526F41B16611D711D811D2B
:200C20002BC045C0990F0008550FAA0BE0E8FEEF16161706E807F907C0F012161306E40732
:200C4000F50798F0621B730B840B950B39F40A2661F0232B242B252B21F408950A2609F46C
:200C6000A140A6958FEF811D811D089597F99F6780E870E060E00895882371F4772321F01B
:200C80009850872B762F07C0662311F499270DC09051862B70E060E02AF09A95660F771FBD
:200CA000881FDAF7880F9695879597F908959F3F31F0915020F4879577956795B795880FB6
:200CC000911D9695879597F908959FEF80EC089500240A9416161706180609060895002462
:200CE0000A9412161306140605060895092E0394000C11F4882352F0BB0F40F4BF2B11F49A
:200D000060FF04C06F5F7F4F8F4F9F4F089557FD9058440F551F59F05F3F71F04795880FED
:200D200097FB991F61F09F3F79F087950895121613061406551FF2CF4695F1DF08C01616E9
:200D400017061806991FF1CF86957105610508940895E5DFA0F0BEE7B91788F4BB279F38B2
:200D600060F41616B11D672F782F8827985FF7CF869577956795B11D93959639C8F308953C
:200D8000E894BB2766277727CB0197F908954ADF08F48FEF08950AD0A9CF9ADF28F09FDF30
:200DA00018F0952309F062CF90CFEBCFB0DFA8F39923D9F35523C9F3950F50E0551FAA2731
:200DC000EE27FF27BB2700240894679520F4E20FF31FB41F0A1E220F331F441FAA1F66957E
:200DE000A9F7779530F4F30FB41F0A1E121E08F46395330F441FAA1F221F769599F787959C
:200E000020F4B40F0A1E121E631F440FAA1F221F331F8695A9F7862F712D602D11249F57AC
:200E200050408AF0E1F088234AF0EE0FFF1FBB1F661F771F881F91505040A9F79E3F5105F7
:200E400070F014CF9ECF5F3FECF3983EDCF3869577956795B795F795E7959F5FC1F7FE2B6A
:200E6000880F911D9695879597F90895FF27EE27BB27AA2760FF04C0A20FB31FE41FF51F0E
:200E8000220F331F441F551F969587957795679589F70097760771F7CF01BD010895AA1BBD
:200EA000BB1B51E107C0AA1FBB1FA617B70710F0A61BB70B881F991F5A95A9F7809590959A
:200EC000BC01CD01089597FB092E07260AD077FD04D0E5DF06D000201AF4709561957F4F41
:200EE0000895F6F7909581959F4F089597FB092E05260ED057FD04D014D00AD0001C38F4A2
:200F000050954095309521953F4F4F4F5F4F0895F6F790958095709561957F4F8F4F9F4F69
:200F20000895A1E21A2EAA1BBB1BFD010DC0AA1FBB1FEE1FFF1FA217B307E407F50720F0AB
:200F4000A21BB30BE40BF50B661F771F881F991F1A9469F760957095809590959B01AC0122
:200F6000BD01CF010895A0E0B0E0E8EBF7E067C0EC01688179818A819B81611571058105FC
:200F8000910521F464E279ED8BE597E02DE133EF41E050E0ABDF79018A0127EA31E440E0BD
:200FA00050E064DF5B016C01C801B7012CEE34EF4FEF5FEF5BDF9B01AC012A0D3B1D4C1D30
:200FC0005D1D57FF04C02150304040405048288339834A835B835F77B901CA01CDB7DEB7FE
:200FE000EAE049C0C0DF089580E690E0BCDF08956093600070936100809362009093630022
:201000000895E199FECF9FBB8EBBE09A99278DB30895262FE199FECF1CBA9FBB8EBB2DBB35
:201020000FB6F894E29AE19A0FBE019608952F923F924F925F926F927F928F929F92AF925E
:20104000BF92CF92DF92EF92FF920F931F93CF93DF93CDB7DEB7CA1BDB0B0FB6F894DEBF61
:201060000FBECDBF09942A88398848885F846E847D848C849B84AA84B984C884DF80EE80AE
:20108000FD800C811B81AA81B981CE0FD11D0FB6F894DEBF0FBECDBFED010895F894FFCF4E
:1C10A00001000000031218090A110A111218090302100801021008010210080140
:00000001FF
